:1007EA0054696D653A202020203A20203A202020A2
:1007FA00416C61726D3A2020203A0053746F702068
:06080A004D6F64653A0029
:0F0963000117FF012415011B00012100011E00D7
:0F094300EF4E600B7D70DDFEEF1F70F41E80F134
:010952002282
:10095300E4F58DF58BD28EE58BC39F40FAC28E22D0
:10083500E4FDFCD28EC3ED9FEC9E5014E4F58D755E
:100845008B14E58DC3940440F90DBD00010C80E5C2
:02085500C28E51
:01085700227E
:03000B0002046E7E
:10046E00C0E0C0D075D000C007758C53758A33E5D7
:10047E00226031E523602DE52420E028050DE50DF1
:10048E00B40A21750D000515E515B43C1775150058
:10049E000519E519B43C0D7519000516E516B418C5
:1004AE00037516001524E524702D752415051BE51E
:1004BE002870047F0180027F008F28E51BB43C1753
:1004CE00751B000521E521B43C0D752100051EE5C7
:0E04DE001EB41803751E00D007D0D0D0E03237
:1008B800EF1FAA0670011E4A600FE4FDEDC394FA0B
:0908C80050EE000000000D80F369
:0108D1002204
:04000E007FFADFFE98
:0100120022CB
:10091B00E4FE12000EB2970EBE64F7D2977F327EC2
:04092B00000208B806
:1008D2008F2B8D2CE5286007E5144430FB80067BC6
:0908E20020AD2CAF2B1208AE2250
:1004EC00E517B40A0050559004FAF8282873020551
:1004FC001802051D02052202052702052C020531F2
:10050C0002053602053B020540020545E4F5148060
:10051C002B75140180267514028021751403801C20
:10052C0075140480177514058012751406800D75EA
:10053C00140780087514088003751409E514F582F6
:10054C003395E0F583D3E5829B7480F865839840FE
:07055C0003E4F5140208D2CC
:03001300020705DC
:10070500C0E0C0F0C083C082C0D075D000C000C0BA
:1007150001C002C003C004C005C006C0077F131294
:1007250009738F1712091BD007D006D005D004D046
:1007350003D002D001D000D0D0D082D083D0F0D069
:02074500E032A0
:10064F0012091BE52860407B3A7D017F091208AE35
:10065F00E51375F00A12087A4430FB7D017F0A1208
:10066F0008AE12089CE51075F00A12087A4430FBA8
:10067F007D017F071208AEE51075F00A12087AAFF8
:10068F00F0EF4430FB80227B207D017F091208AE02
:10069F007B207D017F0A1208AE7B201208AA7B20E7
:1006AF007D017F071208AE7B207D017F081208AE07
:0106BF002218
:1006C0007B3A7D017F091208AEE51375F00A120826
:1006D0007A4430FB7D017F0A1208AE12089CE510B7
:1006E00075F00A12087A4430FB7D017F071208AECC
:1006F000E51075F00A12087AAFF0EF4430FB7D0187
:050700007F080208AEB5
:1008EB00E5096011E51EB5100AE521B513030206F3
:0908FB004F800280001206C022A9
:1003ED00E50D4430FB7D017F0F1208AEE51575F06C
:1003FD000A12087A4430FB7D017F0C1208AEE51518
:10040D0075F00A12087AAFF0EF4430FB7D017F0DD5
:10041D001208AEE51975F00A12087A4430FB7D0119
:10042D007F091208AEE51975F00A12087AAFF0EFE0
:10043D004430FB7D017F0A1208AEE51675F00A12F5
:10044D00087A4430FB7D017F061208AEE51675F083
:10045D000A12087AAFF0EF4430FB7D017F070208E6
:01046D00AEE0
:100016007FD07E07120943C2B612078612056375A2
:100026008901758C53758A33D290D2A975B820D2BE
:10003600AFD28CD28AD2AA7D807F1212097E120597
:10004600DA1208EBE517B40F0D750A01E51E75F017
:100056000A12087AF514E50A60797B02E4FD7F0747
:100066001204ECE517B40A2285141DE5144430FB8E
:10007600E4FD7F071208AEE4F50A750B01E51E756F
:10008600F00A12087A85F0148044E50B60C8E51D75
:10009600B402047B0380027B09E4FD7F081204ECB2
:1000A600E517B40AE585141CE5144430FBE4FD7F2E
:1000B600081208AEE51D75F00AA4251CF51EE4F528
:1000C6000B750C01E52175F00A12087AF5147517FF
:1000D600FF80B7E50C60707B05E4FD7F0A1204EC37
:1000E600E517B40A22851420E5144430FBE4FD7FAD
:1000F6000A1208AEE4F50C750B01E52175F00A123B
:10010600087A85F014803BE50B60C87B09E4FD7F27
:100116000B1204ECE517B40AEE85141FE5144430FF
:10012600FBE4FD7F0B1208AEE52075F00AA4251F3F
:10013600F521E4F50B750801E51B75F00A12087A3E
:10014600F5147517FF80C0E50860657B05E4FD7F43
:100156000D1204ECE517B40A2285141AE51444308E
:10016600FBE4FD7F0D1208AEE4F508750B01E51BF7
:1001760075F00A12087A85F0148030E50B60C87BAA
:1001860009E4FD7F0E1204ECE517B40AEE85141897
:10019600E5144430FBE4FD7F0E1208AEE51A75F057
:1001A6000AA42518F51BE4F50BF5147517FF80CB8B
:1001B600E517640E702EE509701B7509017B227D1B
:1001C600017F0E1208AE752501E51075F00A1208BA
:1001D6007AF514800FE4F5097B207D017F0E120865
:1001E600AE7517FFE52560797B027D017F07120456
:1001F600ECE517B40A2285140FE5144430FB7D01A3
:100206007F071208AEE4F525750B01E51075F00AB7
:1002160012087A85F0148044E50B60C8E50FB40235
:10022600047B0380027B097D017F081204ECE5173D
:10023600B40AE585140EE5144430FB7D017F0812EF
:1002460008AEE50F75F00AA4250EF510E4F50B755A
:100256002701E51375F00A12087AF5147517FF8061
:10026600B7E527605E7B057D017F0A1204ECE51782
:10027600B40A22851412E5144430FB7D017F0A126C
:1002860008AEE4F527750B01E51375F00A12087A36
:1002960085F0148029E50B60C87B097D017F0B1270
:1002A60004ECE517B40AEE851411E5141208A7E567
:1002B6001275F00AA42511F513E4F50BF51475175C
:1002C600FF80D2E517640D70317517FF752601752D
:1002D60022017D017F0112081B7A087B05E4FDFFE0
:1002E60012056A7B2E7D017F0E1208AE7B3A12083C
:1002F600AA7B3A7D017F081208AEE526700302004C
:1003060044E517640D602AE517B40B0C7517FFE476
:10031600F50DF515F519F516E517B40C0F7517FF5C
:10032600E52370047F0180027F008F231203ED8096
:10033600D07517FF7D017F0112081B120563E509C1
:1003460060097B227D017F0E1208AEE5236005E47D
:0B035600F52680A6E4F526F522809F26
:1005DA00E51B75F00A12087A4430FBE4FD7F0D1220
:1005EA0008AEE51B75F00A12087AAFF0EF4430FB4B
:1005FA00E4FD7F0E1208AEE52175F00A12087A446E
:10060A0030FBE4FD7F0A1208AEE52175F00A1208F4
:10061A007AAFF0EF4430FBE4FD7F0B1208AEE51E23
:10062A0075F00A12087A4430FBE4FD7F071208AE1F
:10063A00E51E75F00A12087AAFF0EF4430FBE4FDCC
:05064A007F080208AE6C
:070563007A077BEAE4FDFFCB
:08056A008F2B8D2C8A2D8B2EA6
:10057200E4F530052EE52EAE2D7002052D14F58220
:100582008E83E493D394004004053080E6E5302462
:1005920001FFE433FEC3E49FFFE49EFEEF252EF548
:1005A2002EEE352DF52DE4F52FE52FC3953050278E
:1005B200AF2B052B052EE52EAC2D7002052D14F563
:1005C200828C83E493FBAD2C1208AEE52BB41F039F
:0705D200E4F52B052F80D298
:0105D90022FF
:02085800AE07E9
:10085A00EE540FFF530501D3EE6480948F40034397
:10086A000740BD0103430740430780E4FD02081B1C
:10089C00E51375F00A12087AAFF0EF4430FB7D01D6
:0208AC007F0BC0
:0A08AE008B31120858AF3102090423
:100786001208171208101208107F0A7E0012094379
:100796007D017F3812081B7D017F0812081B7D0131
:1007A6007F0112081B7D017F0612081B7D017F0C4D
:0307B60002081B1B
:0B0810007F0A7E00120943E4FD7F38E0
:10081B008F32ED600312092FC2A0C2A100D2A785AF
:0A082B00328000C2A70000D2A7220D
:100904008F3212092FD2A0C2A100D2A78532800053
:07091400C2A70000D2A722D8
:10092F007580FFC2A0D2A100C2A70000E58020E71A
:04093F00FBD2A7221E
:0A097E008D2B120747AF2B0207472D
:0B097300EF4480FF1207471207B92273
:020747008F2CF5
:10074900C295D295C295D2952094F9C295D2953089
:1007590094FDE4F52DE52C20E704C2948002D2949F
:10076900E52C25E0F52CC295C295D2957F011200A2
:0C07790003052DE52DC3940840DBD2944D
:010785002251
:1007B900C295D2952094FDC295D295E4F5297F0181
:1007C900120003E52A25E0F52A309403432A01C2E1
:1007D90095C295D2950529E529C3940840E0AF2A29
:0107E90022ED
:07000300EF60031F80FA22E9
:0300000002036197
:0C036100787FE4F6D8FD7581320203A815
:10087A00C2D530F707B2D563F0FF05F030E70CB206
:10088A00D5F4048463F0FF05F080018430D502F4C6
:02089A00042236
:10036D00020016E493A3F8E493A34003F68001F290
:10037D0008DFF48029E493A3F85407240CC8C33391
:10038D00C4540F4420C8834004F456800146F6DF60
:10039D00E4800B0102040810204080900963E47E84
:1003AD00019360BCA3FF543F30E509541FFEE49355
:1003BD00A360010ECF54C025E060A840B8E493A31C
:1003CD00FAE493A3F8E493A3C8C582C8CAC583CA47
:1003DD00F0A3C8C582C8CAC583CADFE9DEE780BEFF
:010972000084
:00000001FF
